:100000000C947A000C94A0000C94A0000C94A00016
:100010000C94A0000C94A0000C94A0000C94A000E0
:100020000C94A0000C94A0000C94A0000C94A000D0
:100030000C94A0000C94A0000C94A0000C94A000C0
:100040000C94A0000C94A0000C94A0000C94A000B0
:100050000C94A0000C94A0000C94A0000C94A000A0
:100060000C94A0000C94A0000C94A0000C94A00090
:100070000C94A0000C94A0000C94A0000C94A00080
:100080000C94A0000C94A0000C94A0000C94A00070
:100090000C94A0000C94A0000C94A0000C94A00060
:1000A0000C94A0000C94A0000C94A0000C94A00050
:1000B0000C94A0000C94A0000C94A0000C94A00040
:1000C0000C94A0000C94A0000C94A0000C94A00030
:1000D0000C94A0000C94A0000C94A0000C94A00020
:1000E0000C94A0000C94A0000C94A0000C94A00010
:1000F0000C94A00011241FBECFEFCDBFDFE7DEBF01
:0C0100000E9486000C948400F894FFCF4D
:10010C00E0E2F4E08081886080838481877F84834F
:10011C0025E186E195E0215080409040E1F7848113
:10012C008860848325E186E195E0215080409040F1
:04013C00E1F7EBCF2D
:040140000C9400001B
:00000001FF
